{
  "contractName": "TaskContract",
  "abi": [
    {
      "anonymous": false,
      "inputs": [
        {
          "indexed": false,
          "internalType": "address",
          "name": "recipient",
          "type": "address"
        },
        {
          "indexed": false,
          "internalType": "uint256",
          "name": "taskId",
          "type": "uint256"
        }
      ],
      "name": "AddTasks",
      "type": "event"
    },
    {
      "anonymous": false,
      "inputs": [
        {
          "indexed": false,
          "internalType": "uint256",
          "name": "taskId",
          "type": "uint256"
        },
        {
          "indexed": false,
          "internalType": "bool",
          "name": "isDeleted",
          "type": "bool"
        }
      ],
      "name": "DeleteTasks",
      "type": "event"
    },
    {
      "inputs": [
        {
          "internalType": "string",
          "name": "taskText",
          "type": "string"
        },
        {
          "internalType": "bool",
          "name": "isDeleted",
          "type": "bool"
        }
      ],
      "name": "AddTask",
      "outputs": [],
      "stateMutability": "nonpayable",
      "type": "function"
    },
    {
      "inputs": [],
      "name": "getMyTasks",
      "outputs": [
        {
          "components": [
            {
              "internalType": "uint256",
              "name": "id",
              "type": "uint256"
            },
            {
              "internalType": "string",
              "name": "taskText",
              "type": "string"
            },
            {
              "internalType": "bool",
              "name": "isDeleted",
              "type": "bool"
            }
          ],
          "internalType": "struct TaskContract.Task[]",
          "name": "",
          "type": "tuple[]"
        }
      ],
      "stateMutability": "view",
      "type": "function"
    },
    {
      "inputs": [
        {
          "internalType": "uint256",
          "name": "taskId",
          "type": "uint256"
        },
        {
          "internalType": "bool",
          "name": "isDeleted",
          "type": "bool"
        }
      ],
      "name": "DeleteTask",
      "outputs": [],
      "stateMutability": "nonpayable",
      "type": "function"
    }
  ],
  "bytecode": "0x608060405234801561000f575f80fd5b50610de68061001d5f395ff3fe608060405234801561000f575f80fd5b506004361061003f575f3560e01c80636e13f81814610043578063f03f8ad714610061578063f88a35c31461007d575b5f80fd5b61004b610099565b6040516100589190610752565b60405180910390f35b61007b600480360381019061007691906108d9565b61037b565b005b6100976004803603810190610092919061095d565b610493565b005b60605f808054905067ffffffffffffffff8111156100ba576100b961078b565b5b6040519080825280602002602001820160405280156100f357816020015b6100e061056d565b8152602001906001900390816100d85790505b5090505f805b5f805490508110156102c3573373ffffffffffffffffffffffffffffffffffffffff1660015f8381526020019081526020015f205f9054906101000a900473ffffffffffffffffffffffffffffffffffffffff1673ffffffffffffffffffffffffffffffffffffffff161480156101a157505f15155f82815481106101815761018061099b565b5b905f5260205f2090600302016002015f9054906101000a900460ff161515145b156102b0575f81815481106101b9576101b861099b565b5b905f5260205f2090600302016040518060600160405290815f82015481526020016001820180546101e9906109f5565b80601f0160208091040260200160405190810160405280929190818152602001828054610215906109f5565b80156102605780601f1061023757610100808354040283529160200191610260565b820191905f5260205f20905b81548152906001019060200180831161024357829003601f168201915b50505050508152602001600282015f9054906101000a900460ff1615151515815250508383815181106102965761029561099b565b5b602002602001018190525081806102ac90610a52565b9250505b80806102bb90610a52565b9150506100f9565b505f8167ffffffffffffffff8111156102df576102de61078b565b5b60405190808252806020026020018201604052801561031857816020015b61030561056d565b8152602001906001900390816102fd5790505b5090505f5b82811015610371578381815181106103385761033761099b565b5b60200260200101518282815181106103535761035261099b565b5b6020026020010181905250808061036990610a52565b91505061031d565b5080935050505090565b5f808054905090505f6040518060600160405280838152602001858152602001841515815250908060018154018082558091505060019003905f5260205f2090600302015f909190919091505f820151815f015560208201518160010190816103e49190610c36565b506040820151816002015f6101000a81548160ff02191690831515021790555050503360015f8381526020019081526020015f205f6101000a81548173ffffffffffffffffffffffffffffffffffffffff021916908373ffffffffffffffffffffffffffffffffffffffff1602179055507f325d08430f63fe977e01cc56a5194f5d4f8c2073fa68962fd26b2d4d278c72eb3382604051610486929190610d53565b60405180910390a1505050565b3373ffffffffffffffffffffffffffffffffffffffff1660015f8481526020019081526020015f205f9054906101000a900473ffffffffffffffffffffffffffffffffffffffff1673ffffffffffffffffffffffffffffffffffffffff160361056957805f838154811061050a5761050961099b565b5b905f5260205f2090600302016002015f6101000a81548160ff0219169083151502179055507fec132087b2d498446b38dc54802ec993d7a6a4cb625d8124735e6f222840f87a8282604051610560929190610d89565b60405180910390a15b5050565b60405180606001604052805f8152602001606081526020015f151581525090565b5f81519050919050565b5f82825260208201905092915050565b5f819050602082019050919050565b5f819050919050565b6105c9816105b7565b82525050565b5f81519050919050565b5f82825260208201905092915050565b5f5b838110156106065780820151818401526020810190506105eb565b5f8484015250505050565b5f601f19601f8301169050919050565b5f61062b826105cf565b61063581856105d9565b93506106458185602086016105e9565b61064e81610611565b840191505092915050565b5f8115159050919050565b61066d81610659565b82525050565b5f606083015f8301516106885f8601826105c0565b50602083015184820360208601526106a08282610621565b91505060408301516106b56040860182610664565b508091505092915050565b5f6106cb8383610673565b905092915050565b5f602082019050919050565b5f6106e98261058e565b6106f38185610598565b935083602082028501610705856105a8565b805f5b85811015610740578484038952815161072185826106c0565b945061072c836106d3565b925060208a01995050600181019050610708565b50829750879550505050505092915050565b5f6020820190508181035f83015261076a81846106df565b905092915050565b5f604051905090565b5f80fd5b5f80fd5b5f80fd5b5f80fd5b7f4e487b71000000000000000000000000000000000000000000000000000000005f52604160045260245ffd5b6107c182610611565b810181811067ffffffffffffffff821117156107e0576107df61078b565b5b80604052505050565b5f6107f2610772565b90506107fe82826107b8565b919050565b5f67ffffffffffffffff82111561081d5761081c61078b565b5b61082682610611565b9050602081019050919050565b828183375f83830152505050565b5f61085361084e84610803565b6107e9565b90508281526020810184848401111561086f5761086e610787565b5b61087a848285610833565b509392505050565b5f82601f83011261089657610895610783565b5b81356108a6848260208601610841565b91505092915050565b6108b881610659565b81146108c2575f80fd5b50565b5f813590506108d3816108af565b92915050565b5f80604083850312156108ef576108ee61077b565b5b5f83013567ffffffffffffffff81111561090c5761090b61077f565b5b61091885828601610882565b9250506020610929858286016108c5565b9150509250929050565b61093c816105b7565b8114610946575f80fd5b50565b5f8135905061095781610933565b92915050565b5f80604083850312156109735761097261077b565b5b5f61098085828601610949565b9250506020610991858286016108c5565b9150509250929050565b7f4e487b71000000000000000000000000000000000000000000000000000000005f52603260045260245ffd5b7f4e487b71000000000000000000000000000000000000000000000000000000005f52602260045260245ffd5b5f6002820490506001821680610a0c57607f821691505b602082108103610a1f57610a1e6109c8565b5b50919050565b7f4e487b71000000000000000000000000000000000000000000000000000000005f52601160045260245ffd5b5f610a5c826105b7565b91507fffffffffffffffffffffffffffffffffffffffffffffffffffffffffffffffff8203610a8e57610a8d610a25565b5b600182019050919050565b5f819050815f5260205f209050919050565b5f6020601f8301049050919050565b5f82821b905092915050565b5f60088302610af57fffffffffffffffffffffffffffffffffffffffffffffffffffffffffffffffff82610aba565b610aff8683610aba565b95508019841693508086168417925050509392505050565b5f819050919050565b5f610b3a610b35610b30846105b7565b610b17565b6105b7565b9050919050565b5f819050919050565b610b5383610b20565b610b67610b5f82610b41565b848454610ac6565b825550505050565b5f90565b610b7b610b6f565b610b86818484610b4a565b505050565b5b81811015610ba957610b9e5f82610b73565b600181019050610b8c565b5050565b601f821115610bee57610bbf81610a99565b610bc884610aab565b81016020851015610bd7578190505b610beb610be385610aab565b830182610b8b565b50505b505050565b5f82821c905092915050565b5f610c0e5f1984600802610bf3565b1980831691505092915050565b5f610c268383610bff565b9150826002028217905092915050565b610c3f826105cf565b67ffffffffffffffff811115610c5857610c5761078b565b5b610c6282546109f5565b610c6d828285610bad565b5f60209050601f831160018114610c9e575f8415610c8c578287015190505b610c968582610c1b565b865550610cfd565b601f198416610cac86610a99565b5f5b82811015610cd357848901518255600182019150602085019450602081019050610cae565b86831015610cf05784890151610cec601f891682610bff565b8355505b6001600288020188555050505b505050505050565b5f73ffffffffffffffffffffffffffffffffffffffff82169050919050565b5f610d2e82610d05565b9050919050565b610d3e81610d24565b82525050565b610d4d816105b7565b82525050565b5f604082019050610d665f830185610d35565b610d736020830184610d44565b9392505050565b610d8381610659565b82525050565b5f604082019050610d9c5f830185610d44565b610da96020830184610d7a565b939250505056fea2646970667358221220af76cb6e71bb32b6d8731b67848a592a6ae08abfb1e524f71bbf9b2e6356d4d664736f6c63430008140033",
  "immutableReferences": {},
  "source": "// SPDX-License-Identifier: MIT\npragma solidity >=0.4.22 <0.9.0;\n\ncontract TaskContract {\n  event AddTasks(address recipient , uint taskId);\n  event DeleteTasks(uint taskId , bool isDeleted);\n\n  struct Task {\n    uint id;\n    string taskText;\n    bool isDeleted;\n  }\n\n  Task[] private tasks;\n  mapping(uint256 => address) TaskToOwner;\n\n  function AddTask(string memory taskText , bool isDeleted) external {\n    uint taskId = tasks.length;\n    tasks.push(Task(taskId , taskText , isDeleted));\n    TaskToOwner[taskId] = msg.sender;\n    emit AddTasks(msg.sender, taskId);\n  }\n\n  function getMyTasks() external view returns (Task[] memory) {\n    Task[] memory temporary = new Task[](tasks.length);\n    uint counter = 0;\n\n    for(uint i = 0; i < tasks.length; i++){\n      if(TaskToOwner[i] == msg.sender && tasks[i].isDeleted == false){\n        temporary[counter] = tasks[i];\n        counter++;\n      }\n    }\n\n    Task[] memory result = new Task[](counter);\n    for(uint i = 0; i < counter; i++){\n      result[i] = temporary[i];\n    }\n\n    return result;\n  }\n\n  function DeleteTask(uint taskId , bool isDeleted) external{\n    if(TaskToOwner[taskId] == msg.sender){\n      tasks[taskId].isDeleted = isDeleted;\n      emit DeleteTasks(taskId, isDeleted);\n    }\n  }\n\n}\n",
  "sourcePath": "C:\\Users\\DELL\\Desktop\\todoweb3\\backend\\contracts\\TaskContract.sol",
  "compiler": {
    "name": "solc",
    "version": "0.8.20+commit.a1b79de6.Emscripten.clang"
  },
  "schemaVersion": "3.4.14",
  "updatedAt": "2023-06-29T09:20:10.691Z",
  "devdoc": {
    "kind": "dev",
    "methods": {},
    "version": 1
  },
  "userdoc": {
    "kind": "user",
    "methods": {},
    "version": 1
  }
}